:020000040000FA
:04000000FFEF3BF0E3
:1077F9000100000001F90EF66E770EF76E000EF823
:107809006E00EE0CF010EE05F00900F5CFEEFFE585
:1078190050E150FAE1000EF86E000114EF3CF0005F
:107829000E956E000E8C6E938E939CF19E81BE20F8
:10783900EF3CF022EF3CF04FEF3CF0820E0A6EDE97
:107849000EE82EFED70A2EFCD7102A070E1018D8DC
:10785900A431EF3CF033EF3CF04FEF3CF0010E1058
:107869006E4FEF3CF076EC3CF01BEF3CF0AAEC3E9F
:10787900F01BEF3CF003EC3DF01BEF3CF04BEC3F11
:10788900F01BEF3CF090EC3DF01BEF3CF01DEC3EA3
:10789900F01BEF3CF010500A6E0B6A0B50000AD82F
:1078A900B459EF3CF01BEF3CF00A50010AD8B43749
:1078B900EF3CF0030AD8B43BEF3CF0010AD8B43FDF
:1078C900EF3CF0070AD8B443EF3CF0010AD8B447BB
:1078D900EF3CF0030AD8B44BEF3CF01BEF3CF0004F
:1078E900EF00F0000E046E000E036E04BE86EF3C3E
:1078F900F0045009E1080E035CD8A086EF3CF0883B
:10790900EF3CF08AEF3CF002EF3DF003C001F001DB
:107919000E026E012A93EF3CF0D8900236012E91A7
:10792900EF3CF002508C6E0C040D100E100F10D8A5
:10793900A4A1EF3CF0A3EF3CF0ACEF3CF0820E01C8
:107949006EDE0EE82EFED7012EFCD7D6EF3CF002F4
:107959000E0C180D100E100F10D8A4B6EF3CF0B88D
:10796900EF3CF0BAEF3CF0A3EF3CF0030E0C180D1E
:10797900100E100F10D8A4C4EF3CF0C6EF3CF0C8AD
:10798900EF3CF0A3EF3CF0040E0C180D100E100F95
:1079990010D8A4D2EF3CF0D4EF3CF0D6EF3CF0A3E2
:1079A900EF3CF081BCDBEF3CF0DDEF3CF0FEEF3C5F
:1079B900F0820E016EDE0EE82EFED7012EFCD701F5
:1079C9000E0C26000E0D220E220F22050E0C180D8C
:1079D900100E100F10D8A4F4EF3CF0F6EF3CF0FEB7
:1079E900EF3CF0010E0C6E000E0D6E000E0E6E00D7
:1079F9000E0F6E034A042A7AEF3CF01200000E04BF
:107A09006E000E036E04BE13EF3DF0045009E10948
:107A19000E035CD8A013EF3DF015EF3DF017EF3DD5
:107A2900F08FEF3DF003C001F0010E026E012A2034
:107A3900EF3DF0D8900236012E1EEF3DF002048C86
:107A49006E0C040D100E100F10D8A42EEF3DF0305F
:107A5900EF3DF039EF3DF0820E016EDE0EE82EFEAD
:107A6900D7012EFCD763EF3DF0020E0C180D100E56
:107A7900100F10D8A443EF3DF045EF3DF047EF3D1F
:107A8900F030EF3DF0030E0C180D100E100F10D84A
:107A9900A451EF3DF053EF3DF055EF3DF030EF3D90
:107AA900F0040E0C180D100E100F10D8A45FEF3D46
:107AB900F061EF3DF063EF3DF030EF3DF081BC68E0
:107AC900EF3DF06AEF3DF08BEF3DF0820E016EDE87
:107AD9000EE82EFED7012EFCD7010E0C26000E0D46
:107AE900220E220F22050E0C180D100E100F10D8A1
:107AF900A481EF3DF083EF3DF08BEF3DF0010E0CDB
:107B09006E000E0D6E000E0E6E000E0F6E034A040F
:107B19002A07EF3DF01200000E046E000E036E04FA
:107B2900BEA0EF3DF0045009E1080E035CD8A0A007
:107B3900EF3DF0A2EF3DF0A4EF3DF01CEF3EF00366
:107B4900C001F0030E026E012AADEF3DF0D890029C
:107B590036012EABEF3DF002048C6E0C040D100EB5
:107B6900100F10D8A4BBEF3DF0BDEF3DF0C6EF3DBF
:107B7900F0820E016EDE0EE82EFED7012EFCD7F044
:107B8900EF3DF0020E0C180D100E100F10D8A4D0F6
:107B9900EF3DF0D2EF3DF0D4EF3DF0BDEF3DF00306
:107BA9000E0C180D100E100F10D8A4DEEF3DF0E0EA
:107BB900EF3DF0E2EF3DF0BDEF3DF0040E0C180D86
:107BC900100E100F10D8A4ECEF3DF0EEEF3DF0F0E1
:107BD900EF3DF0BDEF3DF081BCF5EF3DF0F7EF3D36
:107BE900F018EF3EF0820E016EDE0EE82EFED70190
:107BF9002EFCD7010E0C26000E0D220E220F220597
:107C09000E0C180D100E100F10D8A40EEF3EF01028
:107C1900EF3EF018EF3EF0010E0C6E000E0D6E00F7
:107C29000E0E6E000E0F6E034A042A94EF3DF012F9
:107C390000000E046E000E036E04BE2DEF3EF0042C
:107C49005009E1030E035CD8A02DEF3EF02FEF3E63
:107C5900F031EF3EF0A9EF3EF003C001F0010E0252
:107C69006E012A3AEF3EF0D8900236012E38EF3EE7
:107C7900F002288C6E0C040D100E100F10D8A448B9
:107C8900EF3EF04AEF3EF053EF3EF0820E016EDE1A
:107C99000EE82EFED7012EFCD77DEF3EF0020E0C2A
:107CA900180D100E100F10D8A45DEF3EF05FEF3ED7
:107CB900F061EF3EF04AEF3EF0030E0C180D100E86
:107CC900100F10D8A46BEF3EF06DEF3EF06FEF3E52
:107CD900F04AEF3EF0040E0C180D100E100F10D8DC
:107CE900A479EF3EF07BEF3EF07DEF3EF04AEF3EA8
:107CF900F081BC82EF3EF084EF3EF0A5EF3EF082CA
:107D09000E016EDE0EE82EFED7012EFCD7010E0CF9
:107D190026000E0D220E220F22050E0C180D100E34
:107D2900100F10D8A49BEF3EF09DEF3EF0A5EF3E5B
:107D3900F0010E0C6E000E0D6E000E0E6E000E0F91
:107D49006E034A042A21EF3EF01200000E086E006D
:107D59000E076E000E066E070E056E08BEBEEF3EDC
:107D6900F0085009E1080E075CD8A0BEEF3EF0C04C
:107D7900EF3EF0C2EF3EF04AEF3FF005C001F001DF
:107D89000E026E012ACBEF3EF0D8900236012EC9C1
:107D9900EF3EF007C003F0010E046E032AD7EF3E51
:107DA900F0D8900436032ED5EF3EF0045002248C0F
:107DB9006E0C040D100E100F10D8A4E6EF3EF0E87B
:107DC900EF3EF0F1EF3EF0820E016EDE0EE82EFE80
:107DD900D7012EFCD71BEF3FF0020E0C180D100E29
:107DE900100F10D8A4FBEF3EF0FDEF3EF0FFEF3E81
:107DF900F0E8EF3EF0030E0C180D100E100F10D81E
:107E0900A409EF3FF00BEF3FF00DEF3FF0E8EF3E35
:107E1900F0040E0C180D100E100F10D8A417EF3F18
:107E2900F019EF3FF01BEF3FF0E8EF3EF081BC2087
:107E3900EF3FF022EF3FF043EF3FF0820E016EDE9D
:107E49000EE82EFED7012EFCD7010E0C26000E0DD2
:107E5900220E220F22050E0C180D100E100F10D82D
:107E6900A439EF3FF03BEF3FF043EF3FF0010E0C39
:107E79006E000E0D6E000E0E6E000E0F6E074A0894
:107E89002A0506D8A00606B2EF3EF01200000E073A
:107E99006E000E066E000E096E000E086E000E05CD
:107EA9006E000E046E065008248C6E04C001F001A9
:107EB9000E026E000E036E012A66EF3FF0D89002A3
:107EC900360336012E63EF3FF00F0E0216000E0344
:107ED90016025006260350072204500708016E01B6
:107EE9000E026E000E036E012A7EEF3FF0D890025B
:107EF900360336012E7BEF3FF0F00E0216000E031B
:107F09001602500826035009220C040D100E100FFA
:107F190010D8A492EF3FF094EF3FF09DEF3FF0822D
:107F29000E016EDE0EE82EFED7012EFCD7C7EF3FFD
:107F3900F0020E0C180D100E100F10D8A4A7EF3F69
:107F4900F0A9EF3FF0ABEF3FF094EF3FF0030E0CD9
:107F5900180D100E100F10D8A4B5EF3FF0B7EF3F72
:107F6900F0B9EF3FF094EF3FF0040E0C180D100E2E
:107F7900100F10D8A4C3EF3FF0C5EF3FF0C7EF3F94
:107F8900F094EF3FF081BCCCEF3FF0CEEF3FF0EF44
:107F9900EF3FF0820E016EDE0EE82EFED7012EFCB9
:107FA900D7010E0C26000E0D220E220F22050E0CF3
:107FB900180D100E100F10D8A4E5EF3FF0E7EF3FB2
:107FC900F0EFEF3FF0010E0C6E000E0D6E000E0E7D
:107FD9006E000E0F6E044A052A05BEFDEF3FF0053F
:107FE9005009E1050E045CD8A0FDEF3FF0FFEF3F1B
:077FF900F057EF3FF012000A
:020000040020DA
:08000000FFFFFFFFFFFFFFFF00
:020000040030CA
:0E00000000091F1EFF8181FF0FC00FE00F409F
:00000001FF
